{
  "contractName": "MyERC20",
  "abi": [
    {
      "inputs": [],
      "payable": false,
      "stateMutability": "nonpayable",
      "type": "constructor"
    },
    {
      "anonymous": false,
      "inputs": [
        {
          "indexed": true,
          "internalType": "address",
          "name": "owner",
          "type": "address"
        },
        {
          "indexed": true,
          "internalType": "address",
          "name": "spender",
          "type": "address"
        },
        {
          "indexed": false,
          "internalType": "uint256",
          "name": "tokens",
          "type": "uint256"
        }
      ],
      "name": "Approval",
      "type": "event"
    },
    {
      "anonymous": false,
      "inputs": [
        {
          "indexed": true,
          "internalType": "address",
          "name": "from",
          "type": "address"
        },
        {
          "indexed": true,
          "internalType": "address",
          "name": "to",
          "type": "address"
        },
        {
          "indexed": false,
          "internalType": "uint256",
          "name": "tokens",
          "type": "uint256"
        }
      ],
      "name": "Transfer",
      "type": "event"
    },
    {
      "anonymous": false,
      "inputs": [
        {
          "indexed": false,
          "internalType": "address",
          "name": "user",
          "type": "address"
        },
        {
          "indexed": false,
          "internalType": "uint8",
          "name": "user_punch",
          "type": "uint8"
        },
        {
          "indexed": false,
          "internalType": "uint256",
          "name": "stake",
          "type": "uint256"
        },
        {
          "indexed": false,
          "internalType": "uint8",
          "name": "one_punch",
          "type": "uint8"
        }
      ],
      "name": "mora_log",
      "type": "event"
    },
    {
      "constant": true,
      "inputs": [],
      "name": "decimals",
      "outputs": [
        {
          "internalType": "uint8",
          "name": "",
          "type": "uint8"
        }
      ],
      "payable": false,
      "stateMutability": "view",
      "type": "function"
    },
    {
      "constant": true,
      "inputs": [],
      "name": "name",
      "outputs": [
        {
          "internalType": "string",
          "name": "",
          "type": "string"
        }
      ],
      "payable": false,
      "stateMutability": "view",
      "type": "function"
    },
    {
      "constant": true,
      "inputs": [],
      "name": "symbol",
      "outputs": [
        {
          "internalType": "string",
          "name": "",
          "type": "string"
        }
      ],
      "payable": false,
      "stateMutability": "view",
      "type": "function"
    },
    {
      "constant": true,
      "inputs": [],
      "name": "totalSupply",
      "outputs": [
        {
          "internalType": "uint256",
          "name": "",
          "type": "uint256"
        }
      ],
      "payable": false,
      "stateMutability": "view",
      "type": "function"
    },
    {
      "constant": true,
      "inputs": [
        {
          "internalType": "address",
          "name": "_owner",
          "type": "address"
        }
      ],
      "name": "balanceOf",
      "outputs": [
        {
          "internalType": "uint256",
          "name": "balance",
          "type": "uint256"
        }
      ],
      "payable": false,
      "stateMutability": "view",
      "type": "function"
    },
    {
      "constant": true,
      "inputs": [
        {
          "internalType": "address",
          "name": "_owner",
          "type": "address"
        },
        {
          "internalType": "address",
          "name": "_spender",
          "type": "address"
        }
      ],
      "name": "allowance",
      "outputs": [
        {
          "internalType": "uint256",
          "name": "remaining",
          "type": "uint256"
        }
      ],
      "payable": false,
      "stateMutability": "view",
      "type": "function"
    },
    {
      "constant": false,
      "inputs": [
        {
          "internalType": "address",
          "name": "to",
          "type": "address"
        },
        {
          "internalType": "uint256",
          "name": "tokens",
          "type": "uint256"
        }
      ],
      "name": "transfer",
      "outputs": [
        {
          "internalType": "bool",
          "name": "success",
          "type": "bool"
        }
      ],
      "payable": false,
      "stateMutability": "nonpayable",
      "type": "function"
    },
    {
      "constant": false,
      "inputs": [
        {
          "internalType": "address",
          "name": "spender",
          "type": "address"
        },
        {
          "internalType": "uint256",
          "name": "tokens",
          "type": "uint256"
        }
      ],
      "name": "approve",
      "outputs": [
        {
          "internalType": "bool",
          "name": "success",
          "type": "bool"
        }
      ],
      "payable": false,
      "stateMutability": "nonpayable",
      "type": "function"
    },
    {
      "constant": false,
      "inputs": [
        {
          "internalType": "address",
          "name": "from",
          "type": "address"
        },
        {
          "internalType": "address",
          "name": "to",
          "type": "address"
        },
        {
          "internalType": "uint256",
          "name": "tokens",
          "type": "uint256"
        }
      ],
      "name": "transferFrom",
      "outputs": [
        {
          "internalType": "bool",
          "name": "success",
          "type": "bool"
        }
      ],
      "payable": false,
      "stateMutability": "nonpayable",
      "type": "function"
    },
    {
      "constant": false,
      "inputs": [],
      "name": "login",
      "outputs": [],
      "payable": false,
      "stateMutability": "nonpayable",
      "type": "function"
    },
    {
      "constant": false,
      "inputs": [
        {
          "internalType": "uint8",
          "name": "gesture",
          "type": "uint8"
        },
        {
          "internalType": "uint256",
          "name": "stake",
          "type": "uint256"
        }
      ],
      "name": "mora",
      "outputs": [],
      "payable": false,
      "stateMutability": "nonpayable",
      "type": "function"
    }
  ],
  "bytecode": "0x60806040523480156200001157600080fd5b506040518060400160405280600381526020017f4a56430000000000000000000000000000000000000000000000000000000000815250600190805190602001906200005f9291906200023d565b506040518060400160405280600381526020017f4a5643000000000000000000000000000000000000000000000000000000000081525060029080519060200190620000ad9291906200023d565b506012600360006101000a81548160ff021916908360ff160217905550600a600360016101000a81548160ff021916908360ff160217905550336000806101000a81548173ffffffffffffffffffffffffffffffffffffffff021916908373ffffffffffffffffffffffffffffffffffffffff160217905550600360009054906101000a900460ff1660ff16600a0a620f424002600481905550600454600560008060009054906101000a900473ffffffffffffffffffffffffffffffffffffffff1673ffffffffffffffffffffffffffffffffffffffff1673ffffffffffffffffffffffffffffffffffffffff168152602001908152602001600020819055506000809054906101000a900473ffffffffffffffffffffffffffffffffffffffff1673ffffffffffffffffffffffffffffffffffffffff16600073ffffffffffffffffffffffffffffffffffffffff167fddf252ad1be2c89b69c2b068fc378daa952ba7f163c4a11628f55a4df523b3ef6004546040518082815260200191505060405180910390a3620002ec565b828054600181600116156101000203166002900490600052602060002090601f016020900481019282601f106200028057805160ff1916838001178555620002b1565b82800160010185558215620002b1579182015b82811115620002b057825182559160200191906001019062000293565b5b509050620002c09190620002c4565b5090565b620002e991905b80821115620002e5576000816000905550600101620002cb565b5090565b90565b61160180620002fc6000396000f3fe608060405234801561001057600080fd5b50600436106100a95760003560e01c806370a082311161007157806370a082311461025f57806395d89b41146102b7578063a9059cbb1461033a578063b34e97e8146103a0578063caeefe2e146103aa578063dd62ed3e146103e5576100a9565b806306fdde03146100ae578063095ea7b31461013157806318160ddd1461019757806323b872dd146101b5578063313ce5671461023b575b600080fd5b6100b661045d565b6040518080602001828103825283818151815260200191508051906020019080838360005b838110156100f65780820151818401526020810190506100db565b50505050905090810190601f1680156101235780820380516001836020036101000a031916815260200191505b509250505060405180910390f35b61017d6004803603604081101561014757600080fd5b81019080803573ffffffffffffffffffffffffffffffffffffffff169060200190929190803590602001909291905050506104fb565b604051808215151515815260200191505060405180910390f35b61019f6105ed565b6040518082815260200191505060405180910390f35b610221600480360360608110156101cb57600080fd5b81019080803573ffffffffffffffffffffffffffffffffffffffff169060200190929190803573ffffffffffffffffffffffffffffffffffffffff169060200190929190803590602001909291905050506105f7565b604051808215151515815260200191505060405180910390f35b610243610bd9565b604051808260ff1660ff16815260200191505060405180910390f35b6102a16004803603602081101561027557600080fd5b81019080803573ffffffffffffffffffffffffffffffffffffffff169060200190929190505050610bec565b6040518082815260200191505060405180910390f35b6102bf610c35565b6040518080602001828103825283818151815260200191508051906020019080838360005b838110156102ff5780820151818401526020810190506102e4565b50505050905090810190601f16801561032c5780820380516001836020036101000a031916815260200191505b509250505060405180910390f35b6103866004803603604081101561035057600080fd5b81019080803573ffffffffffffffffffffffffffffffffffffffff16906020019092919080359060200190929190505050610cd3565b604051808215151515815260200191505060405180910390f35b6103a8611042565b005b6103e3600480360360408110156103c057600080fd5b81019080803560ff16906020019092919080359060200190929190505050611121565b005b610447600480360360408110156103fb57600080fd5b81019080803573ffffffffffffffffffffffffffffffffffffffff169060200190929190803573ffffffffffffffffffffffffffffffffffffffff16906020019092919050505061126c565b6040518082815260200191505060405180910390f35b60018054600181600116156101000203166002900480601f0160208091040260200160405190810160405280929190818152602001828054600181600116156101000203166002900480156104f35780601f106104c8576101008083540402835291602001916104f3565b820191906000526020600020905b8154815290600101906020018083116104d657829003601f168201915b505050505081565b600081600660003373ffffffffffffffffffffffffffffffffffffffff1673ffffffffffffffffffffffffffffffffffffffff16815260200190815260200160002060008573ffffffffffffffffffffffffffffffffffffffff1673ffffffffffffffffffffffffffffffffffffffff168152602001908152602001600020819055508273ffffffffffffffffffffffffffffffffffffffff163373ffffffffffffffffffffffffffffffffffffffff167f8c5be1e5ebec7d5bd14f71427d1e84f3dd0314c0f7b2291e5b200ac8c7c3b925846040518082815260200191505060405180910390a36001905092915050565b6000600454905090565b60008082600560008773ffffffffffffffffffffffffffffffffffffffff1673ffffffffffffffffffffffffffffffffffffffff16815260200190815260200160002054039050600560008673ffffffffffffffffffffffffffffffffffffffff1673ffffffffffffffffffffffffffffffffffffffff168152602001908152602001600020548111156106f3576040517f08c379a00000000000000000000000000000000000000000000000000000000081526004018080602001828103825260088152602001807f4f766572666c6f7700000000000000000000000000000000000000000000000081525060200191505060405180910390fd5b82600560008773ffffffffffffffffffffffffffffffffffffffff1673ffffffffffffffffffffffffffffffffffffffff1681526020019081526020016000205403600560008773ffffffffffffffffffffffffffffffffffffffff1673ffffffffffffffffffffffffffffffffffffffff1681526020019081526020016000208190555082600660008773ffffffffffffffffffffffffffffffffffffffff1673ffffffffffffffffffffffffffffffffffffffff16815260200190815260200160002060003373ffffffffffffffffffffffffffffffffffffffff1673ffffffffffffffffffffffffffffffffffffffff16815260200190815260200160002054039050600660008673ffffffffffffffffffffffffffffffffffffffff1673ffffffffffffffffffffffffffffffffffffffff16815260200190815260200160002060003373ffffffffffffffffffffffffffffffffffffffff1673ffffffffffffffffffffffffffffffffffffffff168152602001908152602001600020548111156108eb576040517f08c379a00000000000000000000000000000000000000000000000000000000081526004018080602001828103825260088152602001807f4f766572666c6f7700000000000000000000000000000000000000000000000081525060200191505060405180910390fd5b82600660008773ffffffffffffffffffffffffffffffffffffffff1673ffffffffffffffffffffffffffffffffffffffff16815260200190815260200160002060003373ffffffffffffffffffffffffffffffffffffffff1673ffffffffffffffffffffffffffffffffffffffff1681526020019081526020016000205401600660008773ffffffffffffffffffffffffffffffffffffffff1673ffffffffffffffffffffffffffffffffffffffff16815260200190815260200160002060003373ffffffffffffffffffffffffffffffffffffffff1673ffffffffffffffffffffffffffffffffffffffff1681526020019081526020016000208190555082600560008673ffffffffffffffffffffffffffffffffffffffff1673ffffffffffffffffffffffffffffffffffffffff16815260200190815260200160002054019050600560008573ffffffffffffffffffffffffffffffffffffffff1673ffffffffffffffffffffffffffffffffffffffff16815260200190815260200160002054811015610ae3576040517f08c379a00000000000000000000000000000000000000000000000000000000081526004018080602001828103825260088152602001807f4f766572666c6f7700000000000000000000000000000000000000000000000081525060200191505060405180910390fd5b82600560008673ffffffffffffffffffffffffffffffffffffffff1673ffffffffffffffffffffffffffffffffffffffff1681526020019081526020016000205401600560008673ffffffffffffffffffffffffffffffffffffffff1673ffffffffffffffffffffffffffffffffffffffff168152602001908152602001600020819055508373ffffffffffffffffffffffffffffffffffffffff168573ffffffffffffffffffffffffffffffffffffffff167fddf252ad1be2c89b69c2b068fc378daa952ba7f163c4a11628f55a4df523b3ef856040518082815260200191505060405180910390a360019150509392505050565b600360009054906101000a900460ff1681565b6000600560008373ffffffffffffffffffffffffffffffffffffffff1673ffffffffffffffffffffffffffffffffffffffff168152602001908152602001600020549050919050565b60028054600181600116156101000203166002900480601f016020809104026020016040519081016040528092919081815260200182805460018160011615610100020316600290048015610ccb5780601f10610ca057610100808354040283529160200191610ccb565b820191906000526020600020905b815481529060010190602001808311610cae57829003601f168201915b505050505081565b60008082600560003373ffffffffffffffffffffffffffffffffffffffff1673ffffffffffffffffffffffffffffffffffffffff16815260200190815260200160002054039050600560003373ffffffffffffffffffffffffffffffffffffffff1673ffffffffffffffffffffffffffffffffffffffff16815260200190815260200160002054811115610dcf576040517f08c379a00000000000000000000000000000000000000000000000000000000081526004018080602001828103825260088152602001807f4f766572666c6f7700000000000000000000000000000000000000000000000081525060200191505060405180910390fd5b82600560003373ffffffffffffffffffffffffffffffffffffffff1673ffffffffffffffffffffffffffffffffffffffff1681526020019081526020016000205403600560003373ffffffffffffffffffffffffffffffffffffffff1673ffffffffffffffffffffffffffffffffffffffff1681526020019081526020016000208190555082600560008673ffffffffffffffffffffffffffffffffffffffff1673ffffffffffffffffffffffffffffffffffffffff16815260200190815260200160002054019050600560008573ffffffffffffffffffffffffffffffffffffffff1673ffffffffffffffffffffffffffffffffffffffff16815260200190815260200160002054811015610f4d576040517f08c379a00000000000000000000000000000000000000000000000000000000081526004018080602001828103825260088152602001807f4f766572666c6f7700000000000000000000000000000000000000000000000081525060200191505060405180910390fd5b82600560008673ffffffffffffffffffffffffffffffffffffffff1673ffffffffffffffffffffffffffffffffffffffff1681526020019081526020016000205401600560008673ffffffffffffffffffffffffffffffffffffffff1673ffffffffffffffffffffffffffffffffffffffff168152602001908152602001600020819055508373ffffffffffffffffffffffffffffffffffffffff163373ffffffffffffffffffffffffffffffffffffffff167fddf252ad1be2c89b69c2b068fc378daa952ba7f163c4a11628f55a4df523b3ef856040518082815260200191505060405180910390a3600191505092915050565b600061104d33610bec565b1161111f576064600560003373ffffffffffffffffffffffffffffffffffffffff1673ffffffffffffffffffffffffffffffffffffffff168152602001908152602001600020819055503373ffffffffffffffffffffffffffffffffffffffff166000809054906101000a900473ffffffffffffffffffffffffffffffffffffffff1673ffffffffffffffffffffffffffffffffffffffff167fddf252ad1be2c89b69c2b068fc378daa952ba7f163c4a11628f55a4df523b3ef60646040518082815260200191505060405180910390a35b565b8061112b33610bec565b101561113657600080fd5b60006111406112f3565b905080600360018282829054906101000a900460ff160192506101000a81548160ff021916908360ff16021790555060008360ff168260ff1611156111a057600284830360ff161415611196576001905061119b565b600090505b6111d5565b8160ff168460ff1611156111cf57600282850360ff1614156111c557600090506111ca565b600190505b6111d4565b600290505b5b7f0a1357cc13aa982b7bcaa0f19d0d4b91bbab7e735f17d906bccf4933f1d8514f33858585604051808573ffffffffffffffffffffffffffffffffffffffff1673ffffffffffffffffffffffffffffffffffffffff1681526020018460ff1660ff1681526020018381526020018260ff1660ff16815260200194505050505060405180910390a16112668184611327565b50505050565b6000600660008473ffffffffffffffffffffffffffffffffffffffff1673ffffffffffffffffffffffffffffffffffffffff16815260200190815260200160002060008373ffffffffffffffffffffffffffffffffffffffff1673ffffffffffffffffffffffffffffffffffffffff16815260200190815260200160002054905092915050565b6000804243014060001c9050600360019054906101000a900460ff1660ff16810190506003818161132057fe5b0691505090565b60008260ff1614156114795780600560003373ffffffffffffffffffffffffffffffffffffffff1673ffffffffffffffffffffffffffffffffffffffff1681526020019081526020016000206000828254039250508190555080600560008060009054906101000a900473ffffffffffffffffffffffffffffffffffffffff1673ffffffffffffffffffffffffffffffffffffffff1673ffffffffffffffffffffffffffffffffffffffff168152602001908152602001600020600082825401925050819055506000809054906101000a900473ffffffffffffffffffffffffffffffffffffffff1673ffffffffffffffffffffffffffffffffffffffff163373ffffffffffffffffffffffffffffffffffffffff167fddf252ad1be2c89b69c2b068fc378daa952ba7f163c4a11628f55a4df523b3ef836040518082815260200191505060405180910390a36115c8565b60018260ff1614156115c75780600560008060009054906101000a900473ffffffffffffffffffffffffffffffffffffffff1673ffffffffffffffffffffffffffffffffffffffff1673ffffffffffffffffffffffffffffffffffffffff1681526020019081526020016000206000828254039250508190555080600560003373ffffffffffffffffffffffffffffffffffffffff1673ffffffffffffffffffffffffffffffffffffffff168152602001908152602001600020600082825401925050819055503373ffffffffffffffffffffffffffffffffffffffff166000809054906101000a900473ffffffffffffffffffffffffffffffffffffffff1673ffffffffffffffffffffffffffffffffffffffff167fddf252ad1be2c89b69c2b068fc378daa952ba7f163c4a11628f55a4df523b3ef836040518082815260200191505060405180910390a35b5b505056fea265627a7a7231582057f8485a9c05ed4b4640ee1e9e61a176c036696f97e134581819b02ed0d5bd0864736f6c634300050c0032",
  "source": "/**\n *Submitted for verification at Etherscan.io on 2019-12-17\n*/\n\npragma solidity ^0.5.0;\n\ncontract MyERC20 {\n  address owner;\n  string public name;\n  string public symbol;\n  uint8 public decimals;\n  uint8 randomFactor;\n  uint256 _totalSupply;\n  mapping (address => uint) _balances;\n  mapping (address => mapping (address => uint256)) _allowed;\n\n  event Transfer(address indexed from, address indexed to, uint256 tokens);\n  event Approval(address indexed owner, address indexed spender, uint256 tokens);\n\n  constructor () public {\n    name = \"JVC\";\n    symbol = \"JVC\";\n    decimals = 18;\n    randomFactor = 10;\n    owner = address(msg.sender);\n    _totalSupply = 1000000 * 10**uint(decimals);\n    _balances[owner] = _totalSupply;\n    emit Transfer(\n      address(0x0),\n      owner,\n      _totalSupply\n    );\n  }\n\n  /////////////\n  //  erc20  //\n  /////////////\n\n  function totalSupply() public view returns (uint256) {\n    return _totalSupply;\n  }\n\n  function balanceOf(address _owner) public view returns (uint256 balance) {\n    return _balances[_owner];\n  }\n\n  function allowance(address _owner, address _spender) public view returns (uint256 remaining) {\n    return _allowed[_owner][_spender];\n  }\n\n  function transfer(address to, uint256 tokens) public returns (bool success) {\n    // msg.sender => to\n    uint256 c = _balances[msg.sender] - tokens;\n    require(c<=_balances[msg.sender], \"Overflow\");\n    _balances[msg.sender] = _balances[msg.sender] - tokens;\n\n    c = _balances[to] + tokens;\n    require(c>=_balances[to], \"Overflow\");\n    _balances[to] = _balances[to] + tokens;\n\n    emit Transfer(msg.sender, to, tokens);\n    return true;\n  }\n\n  function approve(address spender, uint256 tokens) public returns (bool success) {\n    _allowed[msg.sender][spender] = tokens;\n    emit Approval(msg.sender, spender, tokens);\n    return true;\n  }\n\n  function transferFrom(address from, address to, uint256 tokens) public returns (bool success) {\n    // from => to\n    uint256 c = _balances[from] - tokens;\n    require(c<=_balances[from], \"Overflow\");\n    _balances[from] = _balances[from] - tokens;\n\n    c = _allowed[from][msg.sender] - tokens;\n    require(c<=_allowed[from][msg.sender], \"Overflow\");\n    _allowed[from][msg.sender] = _allowed[from][msg.sender] + tokens;\n\n    c = _balances[to] + tokens;\n    require(c>=_balances[to], \"Overflow\");\n    _balances[to] = _balances[to] + tokens;\n    emit Transfer(from, to, tokens);\n    return true;\n  }\n\n  ////////////\n  //  mora  //\n  ////////////\n\n  event mora_log(address user, uint8 user_punch, uint256 stake, uint8 one_punch);\n\n  //$$$$$$$$$$$$$$$$$$//\n  //$ strike it rich $//\n  //$$$$$$$$$$$$$$$$$$//\n  function login() public {\n      if (balanceOf(msg.sender) <= 0){\n        _balances[msg.sender] = 100;\n        emit Transfer(owner, msg.sender, 100);\n      }\n  }\n\n  function random() private view returns (uint8) {\n    uint256 blockValue = uint256(blockhash(block.number + block.timestamp));\n    blockValue = blockValue + uint256(randomFactor);\n    return uint8(blockValue%3);\n  }\n\n  function mora(uint8 gesture, uint256 stake) public {\n    require(balanceOf(msg.sender) >= stake);\n    uint8 one_punch = random();\n    randomFactor += one_punch;        // update randomFactor\n    uint8 win;\n    if (one_punch > gesture){\n        if ((one_punch - gesture) == 2)\n            win = 1;\n        else\n            win = 0;\n    }\n    else if (gesture > one_punch){\n        if ((gesture - one_punch) == 2)\n            win = 0;\n        else\n            win = 1;\n    }\n    else\n        win = 2;\n\n    emit mora_log(msg.sender, gesture, stake, one_punch);\n    settlement(win, stake);\n  }\n\n  function settlement(uint8 winner, uint256 stake) private{\n      if (winner == 0){\n          _balances[msg.sender] -= stake;\n          _balances[owner] += stake;\n          emit Transfer(msg.sender, owner, stake);\n      }\n      else if (winner == 1){\n          _balances[owner] -= stake;\n          _balances[msg.sender] += stake;\n          emit Transfer(owner, msg.sender, stake);\n      }\n  }\n}\n",
  "sourcePath": "/home/leewei/Desktop/mora/contracts/Mora.sol",
  "compiler": {
    "name": "solc",
    "version": "0.5.12+commit.7709ece9.Emscripten.clang"
  },
  "schemaVersion": "3.0.19",
  "updatedAt": "2019-12-18T07:32:33.466Z",
  "networkType": "ethereum",
  "devdoc": {
    "methods": {}
  },
  "userdoc": {
    "methods": {
      "totalSupply()": {
        "notice": "//////////"
      }
    }
  }
}